S01A0000426573747572696E677365656E686564656E2E73726563A8
S11300000C9434000C9446000C9446000C94460066
S11300100C9446000C9446000C9446000C94460044
S11300200C9446000C9446000C9446000C94C700B3
S11300300C9446000C9446000C9446000C94460024
S11300400C9446000C9446000C9446000C94460014
S11300500C9446000C9446000C9446000C94460004
S11300600C9446000C94460011241FBECFEFD8E038
S1130070DEBFCDBF21E0A0E0B1E001C01D92A832F7
S1130080B207E1F70E944D010C9469010C94000041
S11300900F931F93CF93DF938C018091050190916F
S11300A00601892B81F0E5E0F1E021E030E0822FC8
S11300B0E901A781B0852F5F3F4F3796AB2BB9F786
S11300C0853021F415C0C0E0D0E080E0FE01EE0FE1
S11300D0FF1FEE0FFF1FEE0FFF1FEC1BFD0BEB5F6F
S11300E0FE4F118300837383628355834483168296
S11300F0DF91CF911F910F91089527E0829FC00156
S11301001124FC01EB5FFE4F1182108213821282D4
S113011015821482168280E00895EF92FF921F9355
S1130120CF93DF93C5E0D1E010E08E81882379F08E
S1130130E881F981309759F009958E8181508E8339
S11301408C819D81892B19F4812F0E947D001F5F72
S11301502796153051F7DF91CF911F91FF90EF90C3
S11301600895CF93C0E08C2F0E947D00CF5FC530EF
S1130170D1F781E792E090938900809388008CE026
S11301808093810082E080936F00CF9108951F9245
S11301900F920FB60F9211242F933F938F939F9337
S11301A0AF93BF93EF93FF93E5E0F1E028E231E0F2
S11301B080819181892B91F082819381009759F4F8
S11301C086818F5F868384819581009739F00197BA
S11301D09383828303C00197938382833796E217C4
S11301E0F30731F7FF91EF91BF91AF919F918F91F9
S11301F03F912F910F900FBE0F901F90189584B1CF
S1130200886384B9209A219887B1807E87B908953C
S11302101092C50083E38093C4001092C00088E16B
S11302208093C10086E08093C200089580E68093A5
S11302307C0087E880937A000895E0ECF0E09081F8
S113024095FFFDCF8093C60008950F931F93CF931E
S1130250DF93C0E0D1E005E011E089910E941D0127
S1130260C017D107D1F7DF91CF911F910F91089556
S1130270EAE7F0E0808180648083808186FDFDCFA1
S1130280809179000895ECE7F0E0808180778083A5
S11302900E9438018093000108950E94FF000E948B
S11302A008010E9416010E94B10044E650E060E09B
S11302B070E083E491E00E94480044EF51E060E084
S11302C070E085E291E00E94480078940E948D00DD
S10902D0FDCFF894FFCFFE
S9030000FC
