:100000000C9434000C9451000C9451000C94510049
:100010000C9451000C9451000C9451000C9451001C
:100020000C9451000C9451000C9451000C94D1008C
:100030000C9451000C9451000C9451000C945100FC
:100040000C9451000C9451000C9451000C945100EC
:100050000C9451000C9451000C9451000C945100DC
:100060000C9451000C94510011241FBECFEFD8E026
:10007000DEBFCDBF11E0A0E0B1E0E4E7FCE002C0EC
:1000800005900D92AC30B107D9F721E0ACE0B1E0BA
:1000900001C01D92A033B207E1F70E94A3010C94A6
:1000A00038060C9400000F931F93CF93DF938C01BD
:1000B00080910C0190910D01892B81F0ECE0F1E031
:1000C00021E030E0822FE901A781B0852F5F3F4F0B
:1000D0003796AB2BB9F7853021F415C0C0E0D0E0DE
:1000E00080E0FE01EE0FFF1FEE0FFF1FEE0FFF1F60
:1000F000EC1BFD0BE45FFE4F11830083738362836F
:10010000558344831682DF91CF911F910F910895FB
:1001100027E0829FC0011124FC01E45FFE4F1182A1
:100120001082138212821582148216820895EF9231
:10013000FF921F93CF93DF93CCE0D1E010E08E814C
:10014000882379F0E881F981309759F009958E81FB
:1001500081508E838C819D81892B19F4812F0E947F
:1001600088001F5F2796153051F7DF91CF911F91BF
:10017000FF90EF900895CF93C0E08C2F0E948800ED
:10018000CF5FC530D1F781E792E0909389008093EB
:1001900088008CE08093810082E080936F00CF9193
:1001A00008951F920F920FB60F9211242F933F9331
:1001B0008F939F93AF93BF93EF93FF93ECE0F1E0A6
:1001C0002FE231E080819181892B91F082819381AE
:1001D000009759F486818F5F86838481958100978B
:1001E00039F001979383828303C0019793838283BD
:1001F0003796E217F30731F7FF91EF91BF91AF9177
:100200009F918F913F912F910F900FBE0F901F9054
:100210001895389808951092C50083E38093C40020
:100220001092C00088E18093C10086E08093C200F4
:10023000089580E680937C0087E880937A00089593
:10024000E0ECF0E0908195FFFDCF8093C60008952B
:100250001F93CF93DF93EC0110E007C0FE01E80F7E
:10026000F91F80810E9420011F5F812F90E0FE0115
:1002700001900020E9F73197EC1BFD0B8E179F07CB
:1002800068F3DF91CF911F910895EAE7F0E0808154
:1002900080648083808186FDFDCF209179009091DC
:1002A0007800220F220F892F82958695869583707C
:1002B000820F08950F931F93CF93DF93CDB7DEB7CF
:1002C00060970FB6F894DEBF0FBECDBF0E94450108
:1002D000682F70E080E090E00E94530220E030E060
:1002E00040EA5BE30E94E10220E030E040E05FE3AF
:1002F0000E94B70120E030E048EC52E40E94E102A5
:100300000E9424021F926F9380E091E09F938F934D
:100310008E010F5F1F4F1F930F930E944E03C80162
:100320000E9428010F900F900F900F900F900F9048
:1003300060960FB6F894DEBF0FBECDBFDF91CF91B0
:100340001F910F9108950E9409010E940B010E94C4
:1003500019010E94BB0044EF51E060E070E08AE5C3
:1003600091E00E94530078940E949700FDCF50586E
:10037000BB27AA270E94CF010C94A7020E949902D2
:1003800038F00E94A00220F039F49F3F19F426F4BF
:100390000C9496020EF4E095E7FB0C949002E92F82
:1003A0000E94B80258F3BA176207730784079507CB
:1003B00020F079F4A6F50C94DA020EF4E0950B2EF9
:1003C000BA2FA02D0B01B90190010C01CA01A001A7
:1003D0001124FF27591B99F0593F50F4503E68F102
:1003E0001A16F040A22F232F342F4427585FF3CF43
:1003F000469537952795A795F0405395C9F77EF414
:100400001F16BA0B620B730B840BBAF09150A1F05C
:10041000FF0FBB1F661F771F881FC2F70EC0BA0FE2
:10042000621F731F841F48F4879577956795B7956A
:10043000F7959E3F08F0B0CF9395880F08F0992765
:10044000EE0F9795879508950E94C00288F09F57F8
:1004500098F0B92F9927B751B0F0E1F0660F771FE8
:10046000881F991F1AF0BA95C9F714C0B13091F0DE
:100470000E94DA02B1E008950C94DA02672F782F17
:100480008827B85F39F0B93FCCF3869577956795A3
:10049000B395D9F73EF490958095709561957F4F0F
:1004A0008F4F9F4F0895E89409C097FB3EF49095B5
:1004B0008095709561957F4F8F4F9F4F9923A9F03D
:1004C000F92F96E9BB279395F695879577956795CC
:1004D000B795F111F8CFFAF4BB0F11F460FF1BC010
:1004E0006F5F7F4F8F4F9F4F16C0882311F096E9A3
:1004F00011C0772321F09EE8872F762F05C0662351
:1005000071F096E8862F70E060E02AF09A95660F09
:10051000771F881FDAF7880F9695879597F90895C2
:1005200097F99F6780E870E060E008959FEF80ECA6
:10053000089500240A941616170618060906089549
:1005400000240A9412161306140605060895092EAF
:100550000394000C11F4882352F0BB0F40F4BF2B1E
:1005600011F460FF04C06F5F7F4F8F4F9F4F08955E
:1005700057FD9058440F551F59F05F3F71F0479554
:10058000880F97FB991F61F09F3F79F08795089539
:10059000121613061406551FF2CF4695F1DF08C058
:1005A000161617061806991FF1CF86957105610575
:1005B00008940895E894BB2766277727CB0197F91D
:1005C00008950E94F4020C94A7020E94990238F048
:1005D0000E94A00220F0952311F00C9490020C943C
:1005E000960211240C94DB020E94B80270F3959FCE
:1005F000C1F3950F50E0551F629FF001729FBB271A
:10060000F00DB11D639FAA27F00DB11DAA1F649FB5
:100610006627B00DA11D661F829F2227B00DA11D68
:10062000621F739FB00DA11D621F839FA00D611DEE
:10063000221F749F3327A00D611D231F849F600D0F
:10064000211D822F762F6A2F11249F5750409AF038
:10065000F1F088234AF0EE0FFF1FBB1F661F771FC4
:10066000881F91505040A9F79E3F510580F00C948F
:1006700090020C94DB025F3FE4F3983ED4F386953E
:1006800077956795B795F795E7959F5FC1F7FE2B2F
:10069000880F911D9695879597F90895AEE0B0E083
:1006A000E4E5F3E00C940F060D891E8986E08C8347
:1006B0001A8309838FEF9FE79E838D83AE01475E88
:1006C0005F4F6F89788DCE0101960E947003EF8194
:1006D000F885E00FF11F10822E96E4E00C942B06B3
:1006E000ABE0B0E0E6E7F3E00C9401066C017B01BF
:1006F0008A01FC0117821682838181FFCCC1CE0161
:1007000001963C01F6019381F70193FD859193FFDA
:1007100081917F01882309F4BAC1853239F493FDB0
:10072000859193FF81917F01853229F4B60190E094
:100730000E946705E7CF912C212C312CFFE1F315A6
:10074000D8F08B3279F038F4803279F08332A1F42A
:10075000232D20611DC08D3261F0803369F4232D7B
:10076000216016C0832D8260382EE32DE4603E2E7A
:100770002AC0F32DF8601DC037FC2DC020ED280FD6
:100780002A3040F08E32B9F436FC81C1232D20642A
:10079000322E19C036FE06C08AE0989E200D112424
:1007A000922E11C0EAE02E9E200D1124222EF32D50
:1007B000F0623F2E08C08C3621F4832D8068382EDD
:1007C00002C0883641F4F70193FD859193FF819132
:1007D0007F018111B3CF982F9F7D9554933028F4DA
:1007E0000C5F1F4F9FE399830DC0833631F0833731
:1007F00071F0833509F059C021C0F80180818983E7
:100800000E5F1F4F88248394912C530113C028013D
:10081000F2E04F0E511CF801A080B18036FE03C0FB
:10082000692D70E002C06FEF7FEFC5010E945C058B
:100830004C018201F32DFF773F2E16C0280122E0E4
:10084000420E511CF801A080B18036FE03C0692D14
:1008500070E002C06FEF7FEFC5010E9451054C01AF
:10086000F32DF0683F2E820133FC1BC0822D90E0F7
:1008700088169906B0F4B60180E290E00E94670500
:100880002A94F4CFF50137FC859137FE81915F0101
:10089000B60190E00E94670521102A9421E0821A97
:1008A00091088114910471F7E8C0843611F08936FB
:1008B00041F5F80137FE07C0608171818281938123
:1008C0000C5F1F4F08C060817181072E000C880BE0
:1008D000990B0E5F1F4FF32DFF763F2E97FF09C038
:1008E00090958095709561957F4F8F4F9F4FF068E1
:1008F0003F2E2AE030E0A3010E94A305882E86182F
:1009000045C0853731F4232D2F7EB22E2AE030E00A
:1009100025C0932D997FB92E8F36C1F018F48835F4
:1009200079F0B5C0803719F0883721F0B0C0E92FD1
:10093000E061BE2EB4FE0DC0FB2DF460BF2E09C0D9
:1009400034FE0AC0292F2660B22E06C028E030E00F
:1009500005C020E130E002C020E132E0F801B7FE3E
:1009600007C060817181828193810C5F1F4F06C037
:100970006081718180E090E00E5F1F4FA3010E94B3
:10098000A305882E8618FB2DFF773F2E36FE0DC05F
:10099000232D2E7FA22E891458F434FE0BC032FC76
:1009A00009C0832D8E7EA82E05C0B82CA32C03C0B1
:1009B000B82C01C0B92CA4FE0FC0FE01E80DF11D3A
:1009C0008081803321F49A2D997EA92E09C0A2FE40
:1009D00006C0B394B39404C08A2D867809F0B3940A
:1009E000A3FC11C0A0FE06C0B21488F4280C922CFF
:1009F0009B180EC0B21460F4B60180E290E00E9431
:100A00006705B394F7CFB21418F42B1802C0982CD2
:100A1000212CA4FE10C0B60180E390E00E9467057F
:100A2000A2FE17C0A1FC03C088E790E002C088E5E1
:100A300090E0B6010CC08A2D867859F0A1FE02C064
:100A40008BE201C080E2A7FC8DE2B60190E00E943B
:100A50006705891438F4B60180E390E00E946705C9
:100A60009A94F7CF8A94F301E80DF11D8081B601C5
:100A700090E00E9467058110F5CF222009F442CE54
:100A8000B60180E290E00E9467052A94F6CFF60155
:100A90008681978102C08FEF9FEF2B96E2E10C9445
:100AA0001D06FC010590615070400110D8F780953B
:100AB00090958E0F9F1F0895FC016150704001902A
:100AC0000110D8F7809590958E0F9F1F08950F9372
:100AD0001F93CF93DF93FB01238121FD03C08FEF91
:100AE0009FEF2CC022FF16C046815781248135819B
:100AF0004217530744F4A081B1819D012F5F3F4FFE
:100B0000318320838C93268137812F5F3F4F37833A
:100B1000268314C08B01EC01FB010084F185E02DDC
:100B20000995892BE1F6D80116968D919C9117971E
:100B3000019617969C938E931697CE01DF91CF91D5
:100B40001F910F910895FA01AA27283051F1203101
:100B500081F1E8946F936E7F6E5F7F4F8F4F9F4F51
:100B6000AF4FB1E03ED0B4E03CD0670F781F891F93
:100B70009A1FA11D680F791F8A1F911DA11D6A0F61
:100B8000711D811D911DA11D20D009F468943F9114
:100B90002AE0269F11243019305D3193DEF6CF0113
:100BA0000895462F4770405D4193B3E00FD0C9F7D9
:100BB000F6CF462F4F70405D4A3318F0495D31FD46
:100BC0004052419302D0A9F7EACFB4E0A695979599
:100BD000879577956795BA95C9F70097610571056F
:100BE00008959B01AC010A2E0694579547953795B9
:100BF0002795BA95C9F7620F731F841F951FA01D13
:100C000008952F923F924F925F926F927F928F92B0
:100C10009F92AF92BF92CF92DF92EF92FF920F938B
:100C20001F93CF93DF93CDB7DEB7CA1BDB0B0FB695
:100C3000F894DEBF0FBECDBF09942A883988488852
:100C40005F846E847D848C849B84AA84B984C884E8
:100C5000DF80EE80FD800C811B81AA81B981CE0FDF
:100C6000D11D0FB6F894DEBF0FBECDBFED010895C4
:040C7000F894FFCF26
:0C0C74005F54454D503A2025640A0000F2
:00000001FF
