:100000000C94B1000C94CE000C94CE000C94CE0055
:100010000C94CE000C94CE000C94CE000C94CE0028
:100020000C94CE000C94CE000C94CE000C944E0197
:100030000C94CE000C94CE000C94CE000C94CE0008
:100040000C94CE000C94CE000C94CE000C94CE00F8
:100050000C94CE000C94CE000C94CE000C94CE00E8
:100060000C94CE000C94CE0000407A10F35A00A0FD
:10007000724E18090010A5D4E80000E87648170071
:1000800000E40B54020000CA9A3B000000E1F505B1
:10009000000080969800000040420F000000A086FB
:1000A00001000000102700000000E803000000002D
:1000B0006400000000000A000000000001000000D1
:1000C00000002C76D888DC674F0823DFC1DFAE59EB
:1000D000E1B1B796E5E3E453C63AE651997696E87E
:1000E000E6C28426EB898C9B62ED407C6FFCEFBC02
:1000F0009C9F40F2BAA56FA5F490055A2AF75C932D
:100100006B6CF9676DC11BFCE0E40D47FEF520E662
:10011000B500D0ED902E0300943577050080841E45
:10012000080000204E0A000000C80C333333330FA0
:10013000986E12831141EF8D2114893BE65516CF3D
:10014000FEE6DB18D1844B381BF77C1D901DA4BB49
:10015000E424203284725E228100C9F124ECA1E5FE
:100160003D2711241FBECFEFD8E0DEBFCDBF11E089
:10017000A0E0B1E0E2E0F6E102C005900D92A83205
:10018000B107D9F721E0A8E2B1E001C01D92A03685
:10019000B207E1F70E9439030C94FF0A0C940000A7
:1001A0000F931F93CF93DF938C0180913D0190912A
:1001B0003E01892B81F0EDE3F1E021E030E0822F78
:1001C000E901A781B0852F5F3F4F3796AB2BB9F779
:1001D000853021F415C0C0E0D0E080E0FE01EE0FD4
:1001E000FF1FEE0FFF1FEE0FFF1FEC1BFD0BE35C6D
:1001F000FE4F118300837383628355834483168289
:10020000DF91CF911F910F91089527E0829FC00148
:100210001124FC01E35CFE4F1182108213821282D2
:100220001582148216820895EF92FF921F93CF9346
:10023000DF93CDE3D1E010E08E81882379F0E8816F
:10024000F981309759F009958E8181508E838C8188
:100250009D81892B19F4812F0E9405011F5F27962C
:10026000153051F7DF91CF911F91FF90EF900895D6
:10027000CF93C0E08C2F0E940501CF5FC530D1F72E
:1002800081E792E090938900809388008CE08093CE
:10029000810082E080936F00CF9108951F920F92AA
:1002A0000FB60F9211242F933F938F939F93AF9389
:1002B000BF93EF93FF93EDE3F1E020E631E080811F
:1002C0009181892B91F082819381009759F48681E5
:1002D0008F5F868384819581009739F0019793839E
:1002E000828303C00197938382833796E217F307D3
:1002F00031F7FF91EF91BF91AF919F918F913F9116
:100300002F910F900FBE0F901F9018953898089559
:100310001092C50083E38093C4001092C00088E16E
:100320008093C10086E08093C200089580E68093A8
:100330007C0087E880937A000895E0ECF0E09081FB
:1003400095FFFDCF8093C60008951F93CF93DF9351
:10035000EC0110E007C0FE01E80FF91F80810E9448
:100360009D011F5F812F90E0FE0101900020E9F7C1
:100370003197EC1BFD0B8E179F0768F3DF91CF9130
:100380001F9108958F929F92AF92BF92CF92DF926A
:10039000EF92FF920F931F93CF93DF93CDB7DEB70A
:1003A00068970FB6F894DEBF0FBECDBFE9E2F1E06B
:1003B000ADE3B1E0A12CB12CC12CD12CE12CF12C5E
:1003C00000E010E02191922F990F990B392F492FBE
:1003D000592F692F792F892F0E94B105A22EB32E94
:1003E000C42ED52EE62EF72E082F192FEA17FB075D
:1003F00049F74E0181E1880E911C2A2D3B2D4C2D91
:100400005D2D6E2D7F2D802F912F0E94620420E0A4
:1004100030E040EA51E40E94BA03840121E043E065
:100420000E94BA059F928F9280E191E09F938F93F3
:10043000005111091F930F930E94E305C8010E9408
:10044000A5010F900F900F900F900F900F9068964E
:100450000FB6F894DEBF0FBECDBFDF91CF911F91D5
:100460000F91FF90EF90DF90CF90BF90AF909F9053
:100470008F900895E0ECF0E080818823ECF7809184
:10048000C60008950F931F93CF938C01FC01108237
:100490000E943A028A3051F0C0E0F801EC0FF11DE1
:1004A0008083CF5F0E943A028A30B9F7CF911F91C3
:1004B0000F910895CF93DF93CDB7DEB7A0970FB616
:1004C000F894DEBF0FBECDBF87E0E0E0F1E0DE01D3
:1004D000119601900D928A95E1F7FE01389689E018
:1004E000DF011D928A95E9F7CE0101960E94A501D0
:1004F0001A8A198AFE0173968EE0DF011D928A9591
:10050000E9F7CE0141960E9442026BE171E0CE0113
:1005100041960E94DA05892B89F442E350E060E0BD
:1005200070E08FEF92E00E94D00048EE53E068EE5A
:1005300073E082EC91E00E94D00008C040E050E0FF
:1005400060E070E08AE592E00E94D000A0960FB6CD
:10055000F894DEBF0FBECDBFDF91CF910895CF934A
:10056000DF93CDB7DEB760970FB6F894DEBF0FBE4E
:10057000CDBF1A821982FE0133968EE0DF011D92F3
:100580008A95E9F7CE0101960E94420261E271E08C
:10059000CE0101960E94DA05892B49F440E050E033
:1005A00060E070E08AE592E00E94D00008C040E080
:1005B00050E060E070E08FEA92E00E94D000609628
:1005C0000FB6F894DEBF0FBECDBFDF91CF91089577
:1005D000EAE7F0E0808180648083808186FDFDCF42
:1005E0008091780020917900829586958695837018
:1005F00090E034E0239F800D911D112408950F9306
:100600001F93CF930E94E802C09128010C2F10E0A5
:10061000075D1E4FBC0180E090E00E94680420E06E
:1006200030E040EA5BE30E94440520E030E040E037
:100630005FE30E944D0320E030E048EC52E40E946A
:1006400044050E942C04F8016083CF5F8DECC89FA5
:10065000812D112482958F70880F880F982F990F04
:10066000990F890FC81BC0932801CF911F910F913B
:1006700008950E9486010E9488010E9496010E94AE
:10068000380140E050E06AE070E08FEA92E00E94BA
:10069000D00078940E941401FDCF5058BB27AA27A0
:1006A0000E9465030C940A050E94FC0438F00E9425
:1006B000030520F039F49F3F19F426F40C94E90463
:1006C0000EF4E095E7FB0C94E304E92F0E941B0570
:1006D00058F3BA17620773078407950720F079F477
:1006E000A6F50C943D050EF4E0950B2EBA2FA02D27
:1006F0000B01B90190010C01CA01A0011124FF27CF
:10070000591B99F0593F50F4503E68F11A16F040C9
:10071000A22F232F342F4427585FF3CF46953795C8
:100720002795A795F0405395C9F77EF41F16BA0B8D
:10073000620B730B840BBAF09150A1F0FF0FBB1F3B
:10074000661F771F881FC2F70EC0BA0F621F731F84
:10075000841F48F4879577956795B795F7959E3FE1
:1007600008F0B0CF9395880F08F09927EE0F979572
:10077000879508950E94CE030C940A050E940305F4
:1007800058F00E94FC0440F029F45F3F29F00C94DB
:10079000E30451110C943E050C94E9040E941B05DE
:1007A00068F39923B1F3552391F3951B550BBB27A0
:1007B000AA2762177307840738F09F5F5F4F220FE5
:1007C000331F441FAA1FA9F335D00E2E3AF0E0E8DC
:1007D00032D091505040E695001CCAF72BD0FE2F26
:1007E00029D0660F771F881FBB1F261737074807BA
:1007F000AB07B0E809F0BB0B802DBF01FF27935872
:100800005F4F3AF09E3F510578F00C94E3040C944E
:100810003E055F3FE4F3983ED4F386957795679560
:10082000B795F7959F5FC9F7880F911D96958795A6
:1008300097F90895E1E0660F771F881FBB1F6217C5
:1008400073078407BA0720F0621B730B840BBA0B83
:10085000EE1F88F7E09508950E9433046894B11163
:100860000C943E0508950E94230588F09F5798F048
:10087000B92F9927B751B0F0E1F0660F771F881FA5
:10088000991F1AF0BA95C9F714C0B13091F00E94BF
:100890003D05B1E008950C943D05672F782F88271A
:1008A000B85F39F0B93FCCF3869577956795B395E6
:1008B000D9F73EF490958095709561957F4F8F4F55
:1008C0009F4F089597FB16F40E94EC040C94A60425
:1008D000E89409C097FB3EF49095809570956195DA
:1008E0007F4F8F4F9F4F9923A9F0F92F96E9BB2790
:1008F0009395F695879577956795B795F111F8CF0C
:10090000FAF4BB0F11F460FF1BC06F5F7F4F8F4F76
:100910009F4F16C0882311F096E911C0772321F06C
:100920009EE8872F762F05C0662371F096E8862F04
:1009300070E060E02AF09A95660F771F881FDAF75B
:10094000880F9695879597F90895E894F92F96EB77
:10095000FF2381F0121613061406440B9395F695A7
:1009600087957795679557954040FF23B9F71BC04A
:1009700099270895882351F49850D2F7872B762F22
:10098000652F542F432F322F20E0B1F31216130698
:100990001406440B88233AF09A95440F551F661F9E
:1009A000771F881FCAF755234AF4440F551F11F4C7
:1009B00060FF04C06F5F7F4F8F4F9F4F880F9695EA
:1009C000879597F9089597F99F6780E870E060E050
:1009D00008959FEF80EC08959095809570956095AF
:1009E00050954095309521953F4F4F4F5F4F6F4F3A
:1009F0007F4F8F4F9F4F089500240A9416161706B5
:100A000018060906089500240A94121613061406FF
:100A100005060895092E0394000C11F4882352F062
:100A2000BB0F40F4BF2B11F460FF04C06F5F7F4F1A
:100A30008F4F9F4F089557FD9058440F551F59F001
:100A40005F3F71F04795880F97FB991F61F09F3FBB
:100A500079F087950895121613061406551FF2CFE4
:100A60004695F1DF08C0161617061806991FF1CF34
:100A700086957105610508940895E894BB2766275B
:100A80007727CB0197F908950E9457050C940A0522
:100A90000E94FC0438F00E94030520F0952311F019
:100AA0000C94E3040C94E90411240C943E050E9478
:100AB0001B0570F3959FC1F3950F50E0551F629F82
:100AC000F001729FBB27F00DB11D639FAA27F00DA7
:100AD000B11DAA1F649F6627B00DA11D661F829FCE
:100AE0002227B00DA11D621F739FB00DA11D621FB3
:100AF000839FA00D611D221F749F3327A00D611DD0
:100B0000231F849F600D211D822F762F6A2F1124B1
:100B10009F5750409AF0F1F088234AF0EE0FFF1FE4
:100B2000BB1F661F771F881F91505040A9F79E3F3B
:100B3000510580F00C94E3040C943E055F3FE4F310
:100B4000983ED4F3869577956795B795F795E79591
:100B50009F5FC1F7FE2B880F911D9695879597F99A
:100B600008952A0D3B1D4C1D5D1D6E1D7F1D801FB0
:100B7000911F0895EF920F931F93CF93DF93E80196
:100B800047FD02C034E001C034E1042E000C550BD7
:100B900057FF03C0519541955109E32E022F242F91
:100BA000AE010E94E607CE01DF91CF911F910F9118
:100BB000EF900895FB01DC018D91019080190110E7
:100BC000D9F3990B0895AEE0B0E0E9EEF5E00C94AE
:100BD000D60A0D891E8986E08C831A8309838FEFDC
:100BE0009FE79E838D83AE01475E5F4F6F89788D4F
:100BF000CE0101960E940506EF81F885E00FF11FF6
:100C000010822E96E4E00C94F20AABE0B0E0EBE048
:100C1000F6E00C94C80A6C017B018A01FC01178282
:100C20001682838181FFCCC1CE0101963C01F60181
:100C30009381F70193FD859193FF81917F01882333
:100C400009F4BAC1853239F493FD859193FF8191FE
:100C50007F01853229F4B60190E00E942E0AE7CF89
:100C6000912C212C312CFFE1F315D8F08B3279F047
:100C700038F4803279F08332A1F4232D20611DC035
:100C80008D3261F0803369F4232D216016C0832DED
:100C90008260382EE32DE4603E2E2AC0F32DF860EA
:100CA0001DC037FC2DC020ED280F2A3040F08E32B9
:100CB000B9F436FC81C1232D2064322E19C036FED2
:100CC00006C08AE0989E200D1124922E11C0EAE001
:100CD0002E9E200D1124222EF32DF0623F2E08C0EF
:100CE0008C3621F4832D8068382E02C0883641F47A
:100CF000F70193FD859193FF81917F018111B3CF1E
:100D0000982F9F7D9554933028F40C5F1F4F9FE3DD
:100D100099830DC0833631F0833771F0833509F044
:100D200059C021C0F801808189830E5F1F4F88243C
:100D30008394912C530113C02801F2E04F0E511CF3
:100D4000F801A080B18036FE03C0692D70E002C0BA
:100D50006FEF7FEFC5010E94230A4C018201F32D42
:100D6000FF773F2E16C0280122E0420E511CF801E9
:100D7000A080B18036FE03C0692D70E002C06FEF25
:100D80007FEFC5010E94180A4C01F32DF0683F2E39
:100D9000820133FC1BC0822D90E088169906B0F4C6
:100DA000B60180E290E00E942E0A2A94F4CFF50169
:100DB00037FC859137FE81915F01B60190E00E947A
:100DC0002E0A21102A9421E0821A9108811491049C
:100DD00071F7E8C0843611F0893641F5F80137FE25
:100DE00007C060817181828193810C5F1F4F08C0B1
:100DF00060817181072E000C880B990B0E5F1F4FCD
:100E0000F32DFF763F2E97FF09C090958095709542
:100E100061957F4F8F4F9F4FF0683F2E2AE030E063
:100E2000A3010E946A0A882E861845C0853731F4CE
:100E3000232D2F7EB22E2AE030E025C0932D997FFE
:100E4000B92E8F36C1F018F4883579F0B5C08037E7
:100E500019F0883721F0B0C0E92FE061BE2EB4FE52
:100E60000DC0FB2DF460BF2E09C034FE0AC0292F2F
:100E70002660B22E06C028E030E005C020E130E058
:100E800002C020E132E0F801B7FE07C06081718145
:100E9000828193810C5F1F4F06C06081718180E069
:100EA00090E00E5F1F4FA3010E946A0A882E8618E9
:100EB000FB2DFF773F2E36FE0DC0232D2E7FA22E59
:100EC000891458F434FE0BC032FC09C0832D8E7E89
:100ED000A82E05C0B82CA32C03C0B82C01C0B92C77
:100EE000A4FE0FC0FE01E80DF11D8081803321F4C6
:100EF0009A2D997EA92E09C0A2FE06C0B394B39480
:100F000004C08A2D867809F0B394A3FC11C0A0FE1A
:100F100006C0B21488F4280C922C9B180EC0B21490
:100F200060F4B60180E290E00E942E0AB394F7CFFD
:100F3000B21418F42B1802C0982C212CA4FE10C057
:100F4000B60180E390E00E942E0AA2FE17C0A1FC29
:100F500003C088E790E002C088E590E0B6010CC0CD
:100F60008A2D867859F0A1FE02C08BE201C080E292
:100F7000A7FC8DE2B60190E00E942E0A891438F495
:100F8000B60180E390E00E942E0A9A94F7CF8A94EB
:100F9000F301E80DF11D8081B60190E00E942E0A58
:100FA0008110F5CF222009F442CEB60180E290E014
:100FB0000E942E0A2A94F6CFF6018681978102C0FC
:100FC0008FEF9FEF2B96E2E10C94E40AA9E0B0E0EA
:100FD000ECEEF7E00C94CE0A6A01122FB02E2BE350
:100FE000201720F0FF24F394F00E02C02CE3F22E21
:100FF0000F2D27E0AE014F5F5F4F0E944009BC01FB
:101000004981842F8970813031F0E1FC06C0E0FE17
:1010100006C090E205C09DE203C09BE201C090E0E3
:101020005E2D507143FF3CC0911102C083E001C0AE
:1010300084E0811718F4212F281B01C020E05111F2
:101040000BC0F601822F30E2882319F031938150D2
:10105000FBCFC20ED11C20E0992329F0D6019C932E
:10106000F60131966F01C6010396E2FE0AC03EE426
:10107000D6013C9341E411964C93119712963C9300
:1010800006C03EE6F601308341E641833283FC012F
:10109000322F40E2332309F442C041933150FACF5A
:1010A00042FF44C0911102C083E001C084E0811777
:1010B00018F4212F281B01C020E051110BC0F601AC
:1010C000822F30E2882319F031938150FBCFC20E7A
:1010D000D11C20E0992329F0D6019C93F60131968A
:1010E0006F01C6010396E2FE0BC039E4D6013C93C2
:1010F0003EE411963C93119736E412963C9307C058
:1011000039E6F60130833EE6318336E63283FC0170
:10111000322F40E2332319F041933150FBCFFC01D1
:10112000E20FF11D10828EEF9FEFA6C021E030E0AC
:10113000911102C020E030E0161617061CF4FB01E6
:10114000319602C0E1E0F0E02E0F3F1FBB2021F0FE
:10115000EB2DF0E0319602C0E0E0F0E02E0F3F1FF3
:10116000E12FF0E02E173F071CF4121B212F01C0C6
:1011700020E08E2D887159F4F601822F30E2882309
:1011800019F031938150FBCFC20ED11C20E099237E
:1011900029F0D6019C93F60131966F0151110BC0D5
:1011A000F601822F90E3882319F091938150FBCFB1
:1011B000C20ED11C20E00F2D060F9A81342F307102
:1011C00044FF03C0913309F40150101624F4093090
:1011D00018F008E001C001E0AB0177FF02C040E079
:1011E00050E0FB01E41BF50BA1E0B0E0AC0FBD1F2C
:1011F000EA0FFB1F8EE2A82E4B01801A91080B2DDF
:1012000010E01195019511094F3FBFEF5B0721F4E5
:10121000D601AC9211966D01641775072CF08416F7
:10122000950614F4818101C080E341505109319643
:10123000D60111967D014017510724F0D6018C93F9
:101240006701E2CF6417750739F4963320F49533BC
:1012500019F4311101C081E3F6018083F701822F77
:1012600090E2882319F091938150FBCFF701E20FB0
:10127000F11D108280E090E02996ECE00C94EA0ADF
:10128000283008F027E03327DA01990F311D87FD58
:10129000916000966105710539F432602E5F3D93CF
:1012A00030E32A95E1F708959F3F30F080387105CB
:1012B000610509F03C5F3C5F3D93913008F0806828
:1012C000911DDF93CF931F930F93FF92EF92192FEE
:1012D000987F9695E92F96959695E90FFF27EE53FF
:1012E000FF4F99273327EE24FF24A701E70105903C
:1012F0000894079428F4360FE71EF81E491F511D65
:10130000660F771F881F991F0694A1F70590079411
:1013100028F4E70EF81E491F561FC11D770F881FBE
:10132000991F661F0694A1F70590079428F4F80EFC
:10133000491F561FC71FD11D880F991F661F771F92
:101340000694A1F70590079420F4490F561FC71F74
:10135000D81F990F661F771F881F0694A9F78491DD
:101360001095177041F0D695C79557954795F79406
:10137000E7941A95C1F7E8E6F0E0689415901591A6
:1013800035916591959105907FE27395E118F10A89
:10139000430B560BC90BD009C0F7E10CF11E431FDC
:1013A000561FC91FD01D7EF4703311F48A95E6CF05
:1013B000E894015030F0080F0AF40027021708F4EF
:1013C000202F2395022F7A3328F079E37D932A95F5
:1013D000E9F710C07D932A9589F60694979567954D
:1013E000379517951794E118F10A430B560BC90B63
:1013F000D00998F023957E9173957A3308F070E3C5
:101400007C932013B8F77E9170617D9330F08395C3
:1014100071E37D9370E32A95E1F71124EF90FF903B
:101420000F911F91CF91DF91992787FD9095089596
:10143000FC010590615070400110D8F7809590959F
:101440008E0F9F1F0895FC016150704001900110A4
:10145000D8F7809590958E0F9F1F08950F931F9337
:10146000CF93DF93FB01238121FD03C08FEF9FEF1B
:101470002CC022FF16C04681578124813581421736
:10148000530744F4A081B1819D012F5F3F4F318309
:1014900020838C93268137812F5F3F4F37832683AC
:1014A00014C08B01EC01FB010084F185E02D09954E
:1014B000892BE1F6D80116968D919C91179701968C
:1014C00017969C938E931697CE01DF91CF911F9123
:1014D0000F910895FA01AA27283051F1203181F1A6
:1014E000E8946F936E7F6E5F7F4F8F4F9F4FAF4F2C
:1014F000B1E03ED0B4E03CD0670F781F891F9A1F3F
:10150000A11D680F791F8A1F911DA11D6A0F711DF2
:10151000811D911DA11D20D009F468943F912AE0FE
:10152000269F11243019305D3193DEF6CF010895E6
:10153000462F4770405D4193B3E00FD0C9F7F6CF17
:10154000462F4F70405D4A3318F0495D31FD4052DF
:10155000419302D0A9F7EACFB4E0A6959795879575
:1015600077956795BA95C9F7009761057105089554
:101570009B01AC010A2E0694579547953795279500
:10158000BA95C9F7620F731F841F951FA01D089598
:101590002F923F924F925F926F927F928F929F9283
:1015A000AF92BF92CF92DF92EF92FF920F931F9371
:1015B000CF93DF93CDB7DEB7CA1BDB0B0FB6F89422
:1015C000DEBF0FBECDBF09942A88398848885F8462
:1015D0006E847D848C849B84AA84B984C884DF80D3
:1015E000EE80FD800C811B81AA81B981CE0FD11DB7
:1015F0000FB6F894DEBF0FBECDBFED010895F8948D
:02160000FFCF1A
:101602005F54454D500A0000000000000000000039
:101612005F54454D503A2025730A005F434F4E4EAA
:08162200005F494E495400002D
:00000001FF
