S012000041616E73747572696E672E73726563F6
S11300000C9434000C9451000C94BC020C945100D8
S11300100C9451000C9451000C9451000C94510018
S11300200C9451000C9451000C9451000C944F0109
S11300300C9451000C9451000C9451000C945100F8
S11300400C949D020C9451000C9451000C9451009A
S11300500C9451000C9451000C9451000C945100D8
S11300600C9451000C94510011241FBECFEFD8E022
S1130070DEBFCDBF11E0A0E0B1E0EEECF6E002C0DF
S113008005900D92AE30B107D9F721E0AEE0B1E0B2
S113009001C01D92A935B207E1F70E9427030C9411
S11300A065030C9400002C9A08952C9808952B9ABB
S11300B008952B9808952A9A08952A9808952998BE
S11300C0289A08952898299A089585B18C7F85B92E
S11300D008950F931F93CF93DF938C0180911301A5
S11300E090911401892B81F0E3E1F1E021E030E00B
S11300F0822FE901A781B0852F5F3F4F3796AB2B45
S1130100B9F78A3021F415C0C0E0D0E080E0FE01E8
S1130110EE0FFF1FEE0FFF1FEE0FFF1FEC1BFD0B7B
S1130120ED5EFE4F118300837383628355834483A2
S11301301682DF91CF911F910F91089527E0829F3E
S1130140C0011124FC01ED5EFE4F11821082138266
S113015012821582148216820895EF92FF921F93E1
S1130160CF93DF93C3E1D1E010E08E81882379F04F
S1130170E881F981309759F009958E8181508E83F9
S11301808C819D81892B19F4812F0E949E001F5F11
S113019027961A3051F7DF91CF911F91FF90EF907E
S11301A00895CF93C0E08C2F0E949E00CF5FCA3089
S11301B0D1F7CF91089580910E0190910F01209174
S11301C00201309103012817390720F1892B11F11D
S11301D00E94D10040E050E060E070E08DE590E0E6
S11301E00E94690040E050E060E070E085E690E045
S11301F00E94690044E150E060E070E088E193E02F
S11302000E94690044E150E06AE070E081EF91E00F
S11302100E946900089520910E0130910F01809190
S11302200001909101012817390710F10E94D100B3
S113023040E050E060E070E08DE590E00E946900ED
S113024040E050E060E070E085E690E00E946900E4
S113025044E150E060E070E088E193E00E946900CE
S113026044E150E06AE070E081EF91E00E946900AF
S11302700895CF93C0E08C2F0E949E00CF5FCA30B8
S1130280D1F781E792E090938900809388008CE015
S11302908093810082E080936F00CF9108951F9234
S11302A00F920FB60F9211242F933F938F939F9326
S11302B0AF93BF93EF93FF93E3E1F1E029E531E0DE
S11302C080819181892B91F082819381009759F4E7
S11302D086818F5F868384819581009739F00197A9
S11302E09383828303C00197938382833796E217B3
S11302F0F30731F7FF91EF91BF91AF919F918F91E8
S11303003F912F910F900FBE0F901F90189584B1BD
S11303108C6184B984B1836084B9549A53980895E4
S113032084E08093690082E08DBB089514BC15BC01
S113033081E080936E0008951092C50083E380935A
S1130340C4001092C00088E18093C10086E08093CD
S1130350C2000895E0ECF0E0908195FFFDCF80931A
S1130360C6000895CF93DF93EC01FC0101900020B7
S1130370E9F7CF0101978C1B0E94AA01FE010190AD
S11303800020E9F73197AF014C1B5D0B80E001C001
S11303908F5F282F30E024173507D0F3DF91CF91FA
S11303A00895E0ECF0E080818823ECF78091C600AA
S11303B008950F931F93CF938C01FC0110820E9428
S11303C0D1018A3051F0C0E0F801EC0FF11D8083B7
S11303D0CF5F0E94D1018A30B9F7CF911F910F915D
S11303E00895CF93DF93CDB7DEB760970FB6F89437
S11303F0DEBF0FBECDBF1A821982FE0133968EE096
S1130400DF011D928A95E9F7CE0101960E94D90178
S1130410CE0101960E94B20164E071E0CE01019622
S11304200E945C03892BF1F58FEF0E94AA010E94C0
S1130430D10040E050E060E070E085E590E00E948B
S1130440690040E050E060E070E087E590E00E94E1
S1130450690042E350E060E070E08BE590E00E94C8
S1130460690042E350E069E170E08DE590E00E94AC
S1130470690040E050E060E070E082E690E00E94B5
S1130480690044E150E060E070E088E193E00E949C
S1130490690044E150E06AE070E08BED90E00E9476
S11304A0690042C069E071E0CE0101960E945C03DC
S11304B0892BD1F50E94D10040E050E060E070E06B
S11304C089E590E00E94690040E050E060E070E05F
S11304D083E590E00E94690042E350E060E070E050
S11304E08BE590E00E94690042E350E069E170E02E
S11304F08DE590E00E94690040E050E060E070E02B
S11305008FE590E00E94690044E150E060E070E013
S113051088E193E00E94690044E150E06AE070E001
S11305208BE091E00E94690060960FB6F894DEBFFC
S11305300FBECDBFDF91CF9108951F920F920FB6DA
S11305400F9211248F939F93809111019091120126
S1130550019690931201809311019F918F910F90B6
S11305600FBE0F901F90189516BC10921201109296
S1130570110183E085BD08951F920F920FB60F926B
S113058011242F933F934F935F936F937F938F9394
S11305909F93AF93BF93EF93FF938091100191E0EA
S11305A0282F217080FD90E090931001211103C049
S11305B00E94B40202C00E949601FF91EF91BF9184
S11305C0AF919F918F917F916F915F914F913F91E7
S11305D02F910F900FBE0F901F9018952FEF80E76B
S11305E092E0215080409040E1F700C000005C9808
S11305F025E02A95F1F700005C9A85E38A95F1F7E6
S113060000005C98089596B520E030E0382F290F5B
S1130610311D220F331F220F331FAFE9B6E40E94AE
S11306204D03929582958F7089279F70892708952D
S11306300E94EE0280911101909112010E94030325
S113064080930E0190930F010E94AA0108950E94C5
S113065087010E949C010E9490010E9496010E94C1
S1130660390140E050E060E070E08BE590E00E94EA
S1130670690044E150E060E070E088E193E00E94AA
S1130680690044E150E06AE070E081EF91E00E948B
S1130690690078940E94AD00FDCFA29FB001B39F82
S11306A0C001A39F700D811D1124911DB29F700D77
S11306B0811D1124911D0895FB01DC018D91019090
S11106C080190110D9F3990B0895F894FFCF17
S11106CEA00005005F44574E005F5550000029
S9030000FC
