S012000041616E73747572696E672E73726563F6
S11300000C9434000C9451000C941E010C94510077
S11300100C9451000C9451000C9451000C94510018
S11300200C9451000C9451000C9451000C949C00BD
S11300300C9451000C9451000C9451000C945100F8
S11300400C94FF000C9451000C9451000C9451003A
S11300500C9451000C9451000C9451000C945100D8
S11300600C9451000C94510011241FBECFEFD8E022
S1130070DEBFCDBF11E0A0E0B1E0E8E5F3E002C0EF
S113008005900D92A030B107D9F721E0A0E0B1E0CE
S113009001C01D92AA34B207E1F70E9487010C94B3
S11300A0AA010C94000027E0829FC0011124FC01E6
S11300B0EC5FFE4F11821082138212821582148229
S11300C016820895EF92FF921F93CF93DF93C4E0BB
S11300D0D1E010E08E81882379F0E881F9813097AE
S11300E059F009958E8181508E838C819D81892B55
S11300F019F4812F0E9453001F5F27961A3051F77D
S1130100DF91CF911F91FF90EF900895CF93C0E0BE
S11301108C2F0E945300CF5FCA30D1F781E792E061
S113012090938900809388008CE08093810082E022
S113013080936F00CF9108951F920F920FB60F9284
S113014011242F933F938F939F93AF93BF93EF9378
S1130150FF93E4E0F1E02AE431E080819181892B8E
S113016091F082819381009759F486818F5F868311
S113017084819581009739F001979383828303C02A
S11301800197938382833796E217F30731F7FF9140
S1130190EF91BF91AF919F918F913F912F910F90CC
S11301A00FBE0F901F90189584B18C6184B984B1EF
S11301B0836084B9549A5398089584E080936900C5
S11301C082E08DBB089514BC15BC81E080936E0061
S11301D008951092C50083E38093C4001092C00078
S11301E088E18093C10086E08093C2000895E0EC2A
S11301F0F0E0908195FFFDCF8093C60008951F9293
S11302000F920FB60F9211248F939F938091020146
S113021090910301019690930301809302019F91B1
S11302208F910F900FBE0F901F90189516BC1092CF
S113023003011092020183E085BD08951F920F927D
S11302400FB60F9211242F933F934F935F936F93A5
S11302507F938F939F93AF93BF93EF93FF9380917B
S1130260010191E0282F217080FD90E0909301011D
S1130270211103C00E94160102C00E94E300FF91F5
S1130280EF91BF91AF919F918F917F916F915F910A
S11302904F913F912F910F900FBE0F901F90189583
S11302A02FEF80E792E0215080409040E1F700C0BA
S11302B000005C9825E02A95F1F700005C9A85E33C
S11302C08A95F1F700005C98089596B520E030E037
S11302D0382F290F311D220F331F220F331FAFE98F
S11302E0B6E40E949B01929582958F7089279F7036
S11302F0892708950E945001809102019091030181
S11303000E946501809300010E94F70008950E94F5
S1130310D4000E94E9000E94DD000E94E3000E94D4
S1130320860078940E9462000E947A018091000104
S11303300E94F700F7CFA29FB001B39FC001A39F13
S1130340700D811D1124911DB29F700D811D11240A
S10B0350911D0895F894FFCFFC
S9030000FC
