:100000000C9434000C9451000C941A030C9451007D
:100010000C9451000C9451000C9451000C9451001C
:100020000C9451000C9451000C9451000C94550107
:100030000C9451000C9451000C9451000C945100FC
:100040000C94FB020C9451000C9451000C94510040
:100050000C9451000C9451000C9451000C945100DC
:100060000C9451000C94510011241FBECFEFD8E026
:10007000DEBFCDBF11E0A0E0B1E0E6E8F7E002C0EE
:1000800005900D92AA32B107D9F721E0AAE2B1E0BA
:1000900001C01D92A537B207E1F70E9483030C94BB
:1000A000C1030C9400002C9A08952C9808952B9A63
:1000B00008952B9808952A9A08952A9808952998C2
:1000C000289A08952898299A089585B18C7F85B932
:1000D00008950F931F93CF93DF938C0180912F018D
:1000E00090913001892B81F0EFE2F1E021E030E0E6
:1000F000822FE901A781B0852F5F3F4F3796AB2B49
:10010000B9F78A3021F415C0C0E0D0E080E0FE01EC
:10011000EE0FFF1FEE0FFF1FEE0FFF1FEC1BFD0B7F
:10012000E15DFE4F118300837383628355834483B3
:100130001682DF91CF911F910F91089527E0829F42
:10014000C0011124FC01E15DFE4F11821082138277
:1001500012821582148216820895EF92FF921F93E5
:10016000CF93DF93CFE2D1E010E08E81882379F046
:10017000E881F981309759F009958E8181508E83FD
:100180008C819D81892B19F4812F0E949E001F5F15
:1001900027961A3051F7DF91CF911F91FF90EF9082
:1001A0000895CF93C0E08C2F0E949E00CF5FCA308D
:1001B000D1F7CF91089520912A0130912B018091A0
:1001C0000201909103018217930730F1059782177E
:1001D000930710F50E94D10040E050E060E070E02D
:1001E0008DE590E00E94690040E050E060E070E042
:1001F00085E690E00E94690044E150E060E070E034
:1002000086E793E00E94690044E150E06AE070E014
:1002100083E492E00E946900089520912A013091C0
:100220002B0180910001909101012817390730F1CD
:1002300005962817390710F50E94D10040E050E0DC
:1002400060E070E08DE590E00E94690040E050E0E1
:1002500060E070E085E690E00E94690044E150E0D3
:1002600060E070E086E793E00E94690044E150E0BE
:100270006AE070E083E492E00E9469000895CF9301
:10028000C0E08C2F0E949E00CF5FCA30D1F781E77B
:1002900092E090938900809388008CE080938100A5
:1002A00082E080936F00CF9108951F920F920FB656
:1002B0000F9211242F933F938F939F93AF93BF93EC
:1002C000EF93FF93EFE2F1E025E731E08081918148
:1002D000892B91F082819381009759F486818F5FF9
:1002E000868384819581009739F001979383828377
:1002F00003C00197938382833796E217F30731F7A0
:10030000FF91EF91BF91AF919F918F913F912F916D
:100310000F900FBE0F901F90189584B18C6184B917
:1003200084B1836084B9549A5398089584E080938B
:10033000690082E08DBB089514BC15BC81E08093F8
:100340006E0008951092C50083E38093C40010925C
:10035000C00088E18093C10086E08093C2000895C8
:10036000E0ECF0E0908195FFFDCF8093C60008950A
:100370001F93CF93DF93EC0110E007C0FE01E80F5D
:10038000F91F80810E94B0011F5F812F90E0FE0164
:1003900001900020E9F73197EC1BFD0B8E179F07AA
:1003A00068F3DF91CF911F910895E0ECF0E0808138
:1003B0008823ECF78091C60008950F931F93CF9385
:1003C0008C01FC0110820E94D5018A3051F0C0E0FE
:1003D000F801EC0FF11D8083CF5F0E94D5018A30B8
:1003E000B9F7CF911F910F910895CF93DF93CDB7B8
:1003F000DEB7A0970FB6F894DEBF0FBECDBF86E084
:10040000E4E0F1E0DE01119601900D928A95E1F7AA
:10041000FE0137968AE0DF011D928A95E9F7CE0149
:1004200001960E94B8011A8A198AFE0173968EE01D
:10043000DF011D928A95E9F7CE0141960E94DD0108
:1004400064E171E0CE0141960E94B803892B91F4DA
:100450000E94D10044E150E060E070E086E793E064
:100460000E94690044E150E06AE070E083E492E0B9
:100470000E946900A0960FB6F894DEBF0FBECDBFF4
:10048000DF91CF910895CF93DF93CDB7DEB760971B
:100490000FB6F894DEBF0FBECDBF1A821982FE01DF
:1004A00033968EE0DF011D928A95E9F7CE01019621
:1004B0000E94DD016AE171E0CE0101960E94B8035D
:1004C000892B59F40E94D1004AE050E060E070E0CE
:1004D00085EF91E00E94690085C060E271E0CE0185
:1004E00001960E94B803892BD9F50E94D10044E6F9
:1004F00050E060E070E085E590E00E94690044E62D
:1005000050E060E070E087E590E00E94690042E31F
:1005100050E060E070E08BE590E00E94690042E30B
:1005200050E069E170E08DE590E00E94690040E0F4
:1005300050E060E070E082E690E00E94690044E1F3
:1005400050E060E070E086E793E00E94690044E1DB
:1005500050E06AE070E08BED90E00E94690042C0DC
:1005600065E271E0CE0101960E94B803892BD1F5B6
:100570000E94D10044E650E060E070E089E590E040
:100580000E94690044E650E060E070E083E590E09E
:100590000E94690042E350E060E070E08BE590E08B
:1005A0000E94690042E350E069E170E08DE590E06F
:1005B0000E94690040E050E060E070E08FE590E06C
:1005C0000E94690044E150E060E070E086E793E05B
:1005D0000E94690044E150E06AE070E08DE091E043
:1005E0000E94690060960FB6F894DEBF0FBECDBFC3
:1005F000DF91CF9108951F920F920FB60F921124A1
:100600008F939F9380912D0190912E01019690934D
:100610002E0180932D019F918F910F900FBE0F900F
:100620001F90189516BC10922E0110922D0183E098
:1006300085BD08951F920F920FB60F9211242F932C
:100640003F934F935F936F937F938F939F93AF935A
:10065000BF93EF93FF9380912C0191E0282F21709D
:1006600080FD90E090932C01211103C00E941203A1
:1006700002C00E949C01FF91EF91BF91AF919F91A9
:100680008F917F916F915F914F913F912F910F903B
:100690000FBE0F901F9018952FEF80E792E021502A
:1006A00080409040E1F700C000005C9825E02A956A
:1006B000F1F700005C9A85E38A95F1F700005C98F9
:1006C000089596B520E030E0382F290F311D220F14
:1006D000331F220F331FAFE9B6E40E94A90392959E
:1006E00082958F7089279F70892708950E944C03F7
:1006F00080912D0190912E010E94610390932B0116
:1007000080932A0108950E948D010E94A2010E94F7
:1007100096010E949C010E943F0140E050E060E091
:1007200070E08BE590E00E94690044E150E060E0F9
:1007300070E086E793E00E94690044E150E06AE0DF
:1007400070E083E492E00E94690078940E94AD001A
:10075000FDCFA29FB001B39FC001A39F700D811D6B
:100760001124911DB29F700D811D1124911D0895BA
:10077000FB01DC018D91019080190110D9F3990BD7
:060780000895F894FFCF7C
:10078600A00005005F4D54520A0000000000000062
:10079600000000005F434F4E4E005F494E49540033
:0A07A6005F44574E005F55500000FD
:00000001FF
