:100000000C9434000C9451000C94AA030C945100ED
:100010000C9451000C9451000C9451000C949303D7
:100020000C9451000C9451000C9451000C94230139
:100030000C9451000C9451000C9451000C945100FC
:100040000C947C030C9451000C9451000C945100BE
:100050000C9451000C9451000C9451000C945100DC
:100060000C9451000C94510011241FBECFEFD8E026
:10007000DEBFCDBF11E0A0E0B1E0EAEAF8E002C0E7
:1000800005900D92A833B107D9F721E0A8E3B1E0BC
:1000900001C01D92A438B207E1F70E9413040C942A
:1000A00053040C9400002C9A08952C9808952B9AD0
:1000B00008952B9808952A9A08952A9808952998C2
:1000C000289A08952898299A089585B18C7F85B932
:1000D00008950F931F93CF93DF938C0180913E017E
:1000E00090913F01892B81F0EEE3F1E021E030E0D7
:1000F000822FE901A781B0852F5F3F4F3796AB2B49
:10010000B9F78A3021F415C0C0E0D0E080E0FE01EC
:10011000EE0FFF1FEE0FFF1FEE0FFF1FEC1BFD0B7F
:10012000E25CFE4F118300837383628355834483B3
:100130001682DF91CF911F910F91089527E0829F42
:10014000C0011124FC01E25CFE4F11821082138277
:1001500012821582148216820895EF92FF921F93E5
:10016000CF93DF93CEE3D1E010E08E81882379F046
:10017000E881F981309759F009958E8181508E83FD
:100180008C819D81892B19F4812F0E949E001F5F15
:1001900027961A3051F7DF91CF911F91FF90EF9082
:1001A0000895CF93C0E08C2F0E949E00CF5FCA308D
:1001B000D1F7CF9108952091390130913A01809182
:1001C0000001909101012817390730F10596281791
:1001D000390710F50E94D10040E050E060E070E087
:1001E0008DE590E00E94690040E050E060E070E042
:1001F00085E690E00E94690044E150E060E070E034
:1002000086E094E00E94690044E150E06AE070E01A
:100210008CE692E00E9469000895CF93C0E08C2F95
:100220000E949E00CF5FCA30D1F781E792E09093A1
:100230008900809388008CE08093810082E0809325
:100240006F00CF9108951F920F920FB60F92112455
:100250002F933F938F939F93AF93BF93EF93FF930E
:10026000EEE3F1E024E831E080819181892B91F087
:1002700082819381009759F486818F5F8683848180
:100280009581009739F001979383828303C001978A
:10029000938382833796E217F30731F7FF91EF914B
:1002A000BF91AF919F918F913F912F910F900FBE72
:1002B0000F901F90189584B18C6184B984B18360CC
:1002C00084B9549A5398089584E08093690082E039
:1002D0008DBB089514BC15BC81E080936E00089519
:1002E000E0EBF0E0808182608083E1EBF0E08081F0
:1002F000876080838FEF8093B300E0E7F0E0808138
:100300008260808308951092C50083E38093C400C7
:100310001092C00088E18093C10086E08093C20003
:100320000895E0ECF0E0908195FFFDCF8093C6004A
:1003300008958FE00E9491012091390130913A0196
:1003400080910201909103018217930730F1059784
:100350008217930710F50E94D10040E050E060E062
:1003600070E08DE590E00E94690040E050E060E0C0
:1003700070E085E690E00E94690044E150E060E0B2
:1003800070E086E094E00E94690044E150E06AE099
:1003900070E08CE692E00E94690008951F93CF936D
:1003A000DF93EC0110E007C0FE01E80FF91F808128
:1003B0000E9491011F5F812F90E0FE0101900020BB
:1003C000E9F73197EC1BFD0B8E179F0768F3DF9160
:1003D000CF911F91089590E0E0ECF0E009C080918A
:1003E0003801882319F0109238019F5F9A3030F459
:1003F00080818823A4F78091C60008958AE008953B
:100400000F931F93CF93DF938C01FC0110820E9406
:10041000EB01C82F8A3069F0D0E0F801ED0FF11D33
:10042000C083DF5F0E94EB01C82F0E949101CA3098
:10043000A1F7DF91CF911F910F910895CF93DF9393
:10044000CDB7DEB7A0970FB6F894DEBF0FBECDBF15
:1004500086E0E4E0F1E0DE01119601900D928A95CC
:10046000E1F7FE0137968AE0DF011D928A95E9F7F0
:10047000CE0101960E94CE011A8A198AFE01739656
:100480008EE0DF011D928A95E9F7CE0141960E9428
:1004900000026CE171E0CE0141960E944A04892B72
:1004A00091F40E94D10044E150E060E070E086E009
:1004B00094E00E94690044E150E06AE070E08CE65C
:1004C00092E00E946900A0960FB6F894DEBF0FBEBE
:1004D000CDBFDF91CF910895CF93DF93CDB7DEB736
:1004E00068970FB6F894DEBF0FBECDBF1A8219828F
:1004F000FE0133968EE0DF011D928A95E9F7CE0169
:1005000001960E94000262E271E0CE0101960E9413
:100510004A04892B59F40E94D1004AE050E060E07F
:1005200070E08EE192E00E946900DDC068E271E057
:10053000CE0101960E944A04892B09F043C00E9413
:10054000D10044E650E060E070E085E590E00E9474
:10055000690044E650E060E070E087E590E00E94CA
:10056000690042E350E060E070E08BE590E00E94BB
:10057000690042E350E069E170E08DE590E00E949F
:10058000690040E050E060E070E082E690E00E94A8
:1005900069004EE150E060E070E086E094E00E9487
:1005A00069004EE150E06AE070E089E991E00E9464
:1005B00069004EE150E064E170E08CE692E00E9458
:1005C000690091C06DE271E0CE0101960E944A047B
:1005D000892B09F043C00E94D10044E650E060E05E
:1005E00070E089E590E00E94690044E650E060E038
:1005F00070E083E590E00E94690042E350E060E033
:1006000070E08BE590E00E94690042E350E069E110
:1006100070E08DE590E00E94690040E050E060E00D
:1006200070E08FE590E00E9469004EE150E060E0EC
:1006300070E086E094E00E9469004EE150E06AE0DC
:1006400070E08BED90E00E9469004EE150E064E1C3
:1006500070E08CE692E00E94690045C061E371E0C1
:10066000CE0101960E944A04892B59F50E94D100BF
:1006700040E050E060E070E08BE590E00E946900AF
:1006800040E050E060E070E085E590E00E946900A5
:1006900040E050E060E070E089E590E00E94690091
:1006A00044E150E060E070E086E094E00E94690080
:1006B00044E150E06AE070E08CE692E00E9469005C
:1006C00012C08981882379F086E0E4E1F1E0DE015F
:1006D000519601900D928A95E1F7188E1F8ACE01EE
:1006E00041960E94CE0168960FB6F894DEBF0FBE09
:1006F000CDBFDF91CF9108951F920F920FB60F9249
:1007000011248F939F9380913C0190913D0101961C
:1007100090933D0180933C019F918F910F900FBE6C
:100720000F901F9018951F920F920FB60F921124E1
:100730008F9381E0809338018F910F900FBE0F90BF
:100740001F90189516BC10923D0110923C0183E059
:1007500085BD08951F920F920FB60F9211242F930B
:100760003F934F935F936F937F938F939F93AF9339
:10077000BF93EF93FF9380913B0191E0282F21706D
:1007800080FD90E090933B01211103C00E94A203E1
:1007900002C00E946A01FF91EF91BF91AF919F91BA
:1007A0008F917F916F915F914F913F912F910F901A
:1007B0000FBE0F901F9018952FEF80E792E0215009
:1007C00080409040E1F700C000005C9825E02A9549
:1007D000F1F700005C9A85E38A95F1F700005C98D8
:1007E000089596B520E030E0382F290F311D220FF3
:1007F000331F220F331FAFE9B6E40E943B049295EA
:1008000082958F7089279F70892708950E94DC0345
:1008100080913C0190913D010E94F10390933A0137
:100820008093390108950E945B010E9483010E9418
:1008300064010E946A010E9470010E940D0140E063
:1008400050E060E070E08BE590E00E94690044E1D8
:1008500050E060E070E086E094E00E94690044E1CE
:1008600050E06AE070E08CE692E00E9469007894C3
:100870000E94AD00FDCFA29FB001B39FC001A39F16
:10088000700D811D1124911DB29F700D811D1124C9
:10089000911D0895FB01DC018D91019080190110DB
:0A08A000D9F3990B0895F894FFCFE7
:1008AA00A00005005F4D54520A000000000000003D
:1008BA00000000005F4552520A0000005F434F4E9D
:1008CA004E005F494E4954005F44574E005F5550F1
:0808DA00005F53544F50000071
:00000001FF
