:100000000C9434000C9451000C94BF030C945100D8
:100010000C9451000C9451000C9451000C94A803C2
:100020000C9451000C9451000C9451000C9452010A
:100030000C9451000C9451000C9451000C945100FC
:100040000C9491030C9451000C9451000C945100A9
:100050000C9451000C9451000C9451000C945100DC
:100060000C9451000C94510011241FBECFEFD8E026
:10007000DEBFCDBF11E0A0E0B1E0E4EDF8E002C0EA
:1000800005900D92A035B107D9F721E0A0E5B1E0C8
:1000900001C01D92AC39B207E1F70E9428040C940C
:1000A00068040C9400002C9A08952C9808952B9ABB
:1000B00008952B9808952A9A08952A9808952998C2
:1000C000289A089585B18C7F85B908950F931F9361
:1000D000CF93DF938C018091560190915701892B2A
:1000E00081F0E6E5F1E021E030E0822FE901A7812F
:1000F000B0852F5F3F4F3796AB2BB9F78A3021F48D
:1001000015C0C0E0D0E080E0FE01EE0FFF1FEE0F53
:10011000FF1FEE0FFF1FEC1BFD0BEA5AFE4F118372
:10012000008373836283558344831682DF91CF916A
:100130001F910F91089527E0829FC0011124FC01B7
:10014000EA5AFE4F118210821382128215821482A3
:1001500016820895EF92FF921F93CF93DF93C6E527
:10016000D1E010E08E81882379F0E881F981309721
:1001700059F009958E8181508E838C819D81892BC8
:1001800019F4812F0E949B001F5F27961A3051F7A8
:10019000DF91CF911F91FF90EF900895CF93C0E032
:1001A0008C2F0E949B00CF5FCA30D1F7CF9108956A
:1001B00020915101309152018091020190910301EF
:1001C0008217930730F105978217930710F50E9465
:1001D000CE0040E050E060E070E08DE590E00E94ED
:1001E000660040E050E060E070E082E690E00E944F
:1001F000660044E150E060E070E08BE194E00E9432
:10020000660044E150E06AE070E080E692E00E941F
:1002100066000895209151013091520180910001B2
:10022000909101012817390730F1059628173907F1
:1002300010F50E94CE0040E050E060E070E08DE5F7
:1002400090E00E94660040E050E060E070E082E6EE
:1002500090E00E94660044E150E060E070E08BE1D5
:1002600094E00E94660044E150E06AE070E080E6BD
:1002700092E00E9466000895CF93C0E08C2F0E9408
:100280009B00CF5FCA30D1F781E792E0909389005D
:10029000809388008CE08093810082E080936F00DF
:1002A000CF9108951F920F920FB60F9211242F93A2
:1002B0003F938F939F93AF93BF93EF93FF93E6E5A5
:1002C000F1E02CE931E080819181892B91F08281EC
:1002D0009381009759F486818F5F8683848195810D
:1002E000009739F001979383828303C0019793832A
:1002F00082833796E217F30731F7FF91EF91BF91B1
:10030000AF919F918F913F912F910F900FBE0F90C2
:100310001F90189584B18C6184B984B1836084B9CD
:10032000549A5398089584E08093690082E08DBBCD
:10033000089514BC15BC81E080936E000895E0EB35
:10034000F0E0808182608083E1EBF0E08081876073
:1003500080838FEF8093B300E0E7F0E080818260DC
:10036000808308951092C50083E38093C4001092A7
:10037000C00088E18093C10086E08093C2000895A8
:10038000E0ECF0E0908195FFFDCF8093C6000895EA
:100390001F93CF93DF93EC0110E007C0FE01E80F3D
:1003A000F91F80810E94C0011F5F812F90E0FE0134
:1003B00001900020E9F73197EC1BFD0B8E179F078A
:1003C00068F3DF91CF911F91089590E0E0ECF0E0A9
:1003D00009C080915001882319F0109250019F5F4D
:1003E0009A3030F480818823A4F78091C600089564
:1003F0008AE008950F931F93CF938C01FC01108224
:100400000E94E5018A3051F0C0E0F801EC0FF11DC7
:100410008083CF5F0E94E5018A30B9F7CF911F91A9
:100420000F910895CF93DF93CDB7DEB7A0970FB6A6
:10043000F894DEBF0FBECDBF86E0E4E0F1E0DE0160
:10044000119601900D928A95E1F7FE0137968AE0A8
:10045000DF011D928A95E9F7CE0101960E94C8013D
:100460001A8A198AFE0173968EE0DF011D928A9521
:10047000E9F7CE0141960E94FA0164E371E0CE01F2
:1004800041960E945F04892B91F40E94CE0044E1C2
:1004900050E060E070E08BE194E00E94660044E18F
:1004A00050E06AE070E080E692E00E946600A0966C
:1004B0000FB6F894DEBF0FBECDBFDF91CF91089588
:1004C000CF93DF93CDB7DEB768970FB6F894DEBF52
:1004D0000FBECDBF1A821982FE0133968EE0DF0176
:1004E0001D928A95E9F7CE0101960E94FA016AE30E
:1004F00071E0CE0101960E945F04892B59F40E949D
:10050000CE004AE050E060E070E082E192E00E94BC
:100510006600FEC060E471E0CE0101960E945F04B7
:10052000892B09F052C00E94CE0044E650E060E002
:1005300070E087E590E00E94660044E650E060E0ED
:1005400070E085E590E00E94660044E650E060E0DF
:1005500070E08BE590E00E94660044E650E061E2C6
:1005600070E08DE590E00E94660040E050E060E0C1
:1005700070E08FE590E00E94660044E150E06AE0A0
:1005800070E08BE194E00E94660044E150E060E09E
:1005900070E088ED90E00E94660044E150E06AE07F
:1005A00070E080E692E00E94660086E0E4E1F1E01F
:1005B000DE01519601900D928A95E1F7188E1F8AFF
:1005C000CE0141960E94C801A3C065E471E0CE014E
:1005D00001960E945F04892B09F057C00E94CE004B
:1005E00044E650E060E070E089E590E00E9466003B
:1005F00044E650E060E070E083E590E00E94660031
:1006000044E650E060E070E08BE590E00E94660018
:1006100044E650E061E270E08DE590E00E94660003
:1006200040E050E060E070E08FE590E00E946600FE
:1006300044E150E06AE070E08BE194E00E946600E3
:1006400044E150E060E070E08AE091E00E946600E2
:1006500044E150E06AE070E080E692E00E946600CB
:1006600085E0ECE1F1E0DE01519601900D928A9572
:10067000E1F7FE01769683E0DF011D928A95E9F7A6
:10068000CE0141960E94C80143C069E471E0CE01E9
:1006900001960E945F04892B49F50E94CE0040E03C
:1006A00050E060E070E08DE590E00E94660044E17B
:1006B00050E060E070E08BE194E00E94660044E16D
:1006C00050E06AE070E080E692E00E94660087E019
:1006D000E4E2F1E0DE01519601900D928A95E1F796
:1006E000188ECE0141960E94C80112C089818823CC
:1006F00079F086E0ECE2F1E0DE01519601900D9296
:100700008A95E1F7188E1F8ACE0141960E94C80192
:1007100068960FB6F894DEBF0FBECDBFDF91CF91C4
:1007200008951F920F920FB60F9211248F939F93EB
:1007300080915401909155010196909355018093B9
:1007400054019F918F910F900FBE0F901F9018959D
:100750001F920F920FB60F9211248F9381E0809316
:1007600050018F910F900FBE0F901F90189516BCDF
:10077000109255011092540183E085BD08951F9297
:100780000F920FB60F9211242F933F934F935F93C5
:100790006F937F938F939F93AF93BF93EF93FF9349
:1007A0008091530191E0282F217080FD90E090937B
:1007B0005301211103C00E94B70302C00E94990196
:1007C000FF91EF91BF91AF919F918F917F916F9129
:1007D0005F914F913F912F910F900FBE0F901F90FF
:1007E00018952FEF80E792E0215080409040E1F78C
:1007F00000C000005C9825E02A95F1F700005C9AA3
:1008000085E38A95F1F700005C98089596B520E09D
:1008100030E0382F290F311D220F331F220F331FD5
:10082000AFE9B6E40E945004929582958F708927B3
:100830009F70892708950E94F1038091540190913F
:1008400055010E940604909352018093510108952E
:100850000E948A010E94B2010E9493010E949901A4
:100860000E949F010E943C0140E050E060E070E087
:100870008BE590E00E94660044E150E060E070E0AB
:100880008BE194E00E94660044E150E06AE070E091
:1008900080E692E00E94660078940E94AA00FDCF54
:1008A000A29FB001B39FC001A39F700D811D1124B1
:1008B000911DB29F700D811D1124911D0895FB01A2
:1008C000DC018D91019080190110D9F3990B0895E5
:0408D000F894FFCFCA
:1008D400A00005005F4D54520A0000000000000013
:1008E400000000005F44574E0A0000005F55500AA4
:1008F400000000005F53544F500A00005F455252FD
:100904000A0000005F434F4E4E005F494E495400B9
:100914005F44574E005F5550005F53544F500000E2
:00000001FF
