S012000041616E73747572696E672E73726563F6
S11300000C9434000C9451000C9433010C94510062
S11300100C9451000C9451000C9451000C94510018
S11300200C9451000C9451000C9451000C94B100A8
S11300300C9451000C9451000C9451000C945100F8
S11300400C9414010C9451000C9451000C94510024
S11300500C9451000C9451000C9451000C945100D8
S11300600C9451000C94510011241FBECFEFD8E022
S1130070DEBFCDBF11E0A0E0B1E0EEE9F3E002C0E5
S113008005900D92A030B107D9F721E0A0E0B1E0CE
S113009001C01D92A832B207E1F70E948F010C94AF
S11300A0CD010C9400002C9A08952C9808950F9378
S11300B01F93CF93DF938C018091040190910501EC
S11300C0892B81F0E4E0F1E021E030E0822FE901C6
S11300D0A781B0852F5F3F4F3796AB2BB9F785309B
S11300E021F415C0C0E0D0E080E0FE01EE0FFF1F58
S11300F0EE0FFF1FEE0FFF1FEC1BFD0BEC5FFE4F1F
S11301001183008373836283558344831682DF9152
S1130110CF911F910F91089527E0829FC001112470
S1130120FC01EC5FFE4F1182108213821282158251
S1130130148216820895CF93C0E08C2F0E948C0005
S1130140CF5FC530D1F781E792E090938900809327
S113015088008CE08093810082E080936F00CF91CF
S113016008951F920F920FB60F9211242F933F936D
S11301708F939F93AF93BF93EF93FF93E4E0F1E0EA
S113018027E231E080819181892B91F082819381F2
S1130190009759F486818F5F8683848195810097C7
S11301A039F001979383828303C0019793838283F9
S11301B03796E217F30731F7FF91EF91BF91AF91B3
S11301C09F918F913F912F910F900FBE0F901F9091
S11301D0189584B1886384B984B1836084B9549ACE
S11301E05398089584E08093690082E08DBB08955C
S11301F014BC15BC81E080936E0008951092C50074
S113020083E38093C4001092C00088E18093C1000E
S113021086E08093C2000895E0ECF0E0908195FFC1
S1130220FDCF8093C60008951F920F920FB60F92D0
S113023011248F939F938091010190910201019663
S113024090930201809301019F918F910F900FBEB3
S11302500F901F90189516BC109202011092010184
S113026083E085BD08951F920F920FB60F9211245B
S11302702F933F934F935F936F937F938F939F93AA
S1130280AF93BF93EF93FF938091000191E0282FE8
S1130290217080FD90E090930001211103C00E9421
S11302A02B0102C00E94F800FF91EF91BF91AF9122
S11302B09F918F917F916F915F914F913F912F917A
S11302C00F900FBE0F901F9018952FEF80E792E0CC
S11302D0215080409040E1F700C000005C9825E088
S11302E02A95F1F700005C9A85E38A95F1F70000FE
S11302F05C98089596B520E030E0382F290F311D21
S1130300220F331F220F331FAFE9B6E40E94BE0150
S1130310929582958F7089279F70892708950E94EE
S1130320E9000E94FE000E94F2000E94F8000E9470
S11303309B0040E951E060E070E083E590E00E94BA
S1130340570040E951E068EC70E085E590E00E94D8
S1130350570078940E9465012FEF83ED90E32150BC
S113036080409040E1F700C000008091010190912D
S113037002010E947A010E940C01ECCFA29FB001FD
S1130380B39FC001A39F700D811D1124911DB29FC5
S1110390700D811D1124911D0895F894FFCF66
S9030000FC
